{
  "contractName": "TrippyNFTs",
  "abi": [
    {
      "inputs": [
        {
          "internalType": "string",
          "name": "name_",
          "type": "string"
        },
        {
          "internalType": "string",
          "name": "symbol_",
          "type": "string"
        },
        {
          "components": [
            {
              "internalType": "uint64",
              "name": "price",
              "type": "uint64"
            },
            {
              "internalType": "uint64",
              "name": "start",
              "type": "uint64"
            },
            {
              "internalType": "uint64",
              "name": "end",
              "type": "uint64"
            },
            {
              "internalType": "uint64",
              "name": "maxBuys",
              "type": "uint64"
            }
          ],
          "internalType": "struct TrippyNFTs.Sale",
          "name": "_whitelistedSale",
          "type": "tuple"
        },
        {
          "internalType": "bytes32",
          "name": "_whitelistRoot",
          "type": "bytes32"
        }
      ],
      "stateMutability": "nonpayable",
      "type": "constructor"
    },
    {
      "anonymous": false,
      "inputs": [
        {
          "indexed": true,
          "internalType": "address",
          "name": "owner",
          "type": "address"
        },
        {
          "indexed": true,
          "internalType": "address",
          "name": "approved",
          "type": "address"
        },
        {
          "indexed": true,
          "internalType": "uint256",
          "name": "tokenId",
          "type": "uint256"
        }
      ],
      "name": "Approval",
      "type": "event"
    },
    {
      "anonymous": false,
      "inputs": [
        {
          "indexed": true,
          "internalType": "address",
          "name": "owner",
          "type": "address"
        },
        {
          "indexed": true,
          "internalType": "address",
          "name": "operator",
          "type": "address"
        },
        {
          "indexed": false,
          "internalType": "bool",
          "name": "approved",
          "type": "bool"
        }
      ],
      "name": "ApprovalForAll",
      "type": "event"
    },
    {
      "anonymous": false,
      "inputs": [
        {
          "indexed": true,
          "internalType": "address",
          "name": "previousOwner",
          "type": "address"
        },
        {
          "indexed": true,
          "internalType": "address",
          "name": "newOwner",
          "type": "address"
        }
      ],
      "name": "OwnershipTransferred",
      "type": "event"
    },
    {
      "anonymous": false,
      "inputs": [
        {
          "indexed": true,
          "internalType": "address",
          "name": "from",
          "type": "address"
        },
        {
          "indexed": true,
          "internalType": "address",
          "name": "to",
          "type": "address"
        },
        {
          "indexed": true,
          "internalType": "uint256",
          "name": "tokenId",
          "type": "uint256"
        }
      ],
      "name": "Transfer",
      "type": "event"
    },
    {
      "inputs": [
        {
          "internalType": "address",
          "name": "to",
          "type": "address"
        },
        {
          "internalType": "uint256",
          "name": "tokenId",
          "type": "uint256"
        }
      ],
      "name": "approve",
      "outputs": [],
      "stateMutability": "nonpayable",
      "type": "function"
    },
    {
      "inputs": [
        {
          "internalType": "address",
          "name": "owner",
          "type": "address"
        }
      ],
      "name": "balanceOf",
      "outputs": [
        {
          "internalType": "uint256",
          "name": "",
          "type": "uint256"
        }
      ],
      "stateMutability": "view",
      "type": "function"
    },
    {
      "inputs": [
        {
          "internalType": "uint256",
          "name": "tokenId",
          "type": "uint256"
        }
      ],
      "name": "getApproved",
      "outputs": [
        {
          "internalType": "address",
          "name": "",
          "type": "address"
        }
      ],
      "stateMutability": "view",
      "type": "function"
    },
    {
      "inputs": [
        {
          "internalType": "address",
          "name": "owner",
          "type": "address"
        },
        {
          "internalType": "address",
          "name": "operator",
          "type": "address"
        }
      ],
      "name": "isApprovedForAll",
      "outputs": [
        {
          "internalType": "bool",
          "name": "",
          "type": "bool"
        }
      ],
      "stateMutability": "view",
      "type": "function"
    },
    {
      "inputs": [],
      "name": "name",
      "outputs": [
        {
          "internalType": "string",
          "name": "",
          "type": "string"
        }
      ],
      "stateMutability": "view",
      "type": "function"
    },
    {
      "inputs": [],
      "name": "owner",
      "outputs": [
        {
          "internalType": "address",
          "name": "",
          "type": "address"
        }
      ],
      "stateMutability": "view",
      "type": "function"
    },
    {
      "inputs": [
        {
          "internalType": "uint256",
          "name": "tokenId",
          "type": "uint256"
        }
      ],
      "name": "ownerOf",
      "outputs": [
        {
          "internalType": "address",
          "name": "",
          "type": "address"
        }
      ],
      "stateMutability": "view",
      "type": "function"
    },
    {
      "inputs": [],
      "name": "publicSale",
      "outputs": [
        {
          "internalType": "uint64",
          "name": "price",
          "type": "uint64"
        },
        {
          "internalType": "uint64",
          "name": "start",
          "type": "uint64"
        },
        {
          "internalType": "uint64",
          "name": "end",
          "type": "uint64"
        },
        {
          "internalType": "uint64",
          "name": "maxBuys",
          "type": "uint64"
        }
      ],
      "stateMutability": "view",
      "type": "function"
    },
    {
      "inputs": [],
      "name": "renounceOwnership",
      "outputs": [],
      "stateMutability": "nonpayable",
      "type": "function"
    },
    {
      "inputs": [
        {
          "internalType": "address",
          "name": "from",
          "type": "address"
        },
        {
          "internalType": "address",
          "name": "to",
          "type": "address"
        },
        {
          "internalType": "uint256",
          "name": "tokenId",
          "type": "uint256"
        }
      ],
      "name": "safeTransferFrom",
      "outputs": [],
      "stateMutability": "nonpayable",
      "type": "function"
    },
    {
      "inputs": [
        {
          "internalType": "address",
          "name": "from",
          "type": "address"
        },
        {
          "internalType": "address",
          "name": "to",
          "type": "address"
        },
        {
          "internalType": "uint256",
          "name": "tokenId",
          "type": "uint256"
        },
        {
          "internalType": "bytes",
          "name": "_data",
          "type": "bytes"
        }
      ],
      "name": "safeTransferFrom",
      "outputs": [],
      "stateMutability": "nonpayable",
      "type": "function"
    },
    {
      "inputs": [
        {
          "internalType": "address",
          "name": "operator",
          "type": "address"
        },
        {
          "internalType": "bool",
          "name": "approved",
          "type": "bool"
        }
      ],
      "name": "setApprovalForAll",
      "outputs": [],
      "stateMutability": "nonpayable",
      "type": "function"
    },
    {
      "inputs": [
        {
          "internalType": "bytes4",
          "name": "interfaceId",
          "type": "bytes4"
        }
      ],
      "name": "supportsInterface",
      "outputs": [
        {
          "internalType": "bool",
          "name": "",
          "type": "bool"
        }
      ],
      "stateMutability": "view",
      "type": "function"
    },
    {
      "inputs": [],
      "name": "symbol",
      "outputs": [
        {
          "internalType": "string",
          "name": "",
          "type": "string"
        }
      ],
      "stateMutability": "view",
      "type": "function"
    },
    {
      "inputs": [
        {
          "internalType": "uint256",
          "name": "tokenId",
          "type": "uint256"
        }
      ],
      "name": "tokenURI",
      "outputs": [
        {
          "internalType": "string",
          "name": "",
          "type": "string"
        }
      ],
      "stateMutability": "view",
      "type": "function"
    },
    {
      "inputs": [
        {
          "internalType": "address",
          "name": "from",
          "type": "address"
        },
        {
          "internalType": "address",
          "name": "to",
          "type": "address"
        },
        {
          "internalType": "uint256",
          "name": "tokenId",
          "type": "uint256"
        }
      ],
      "name": "transferFrom",
      "outputs": [],
      "stateMutability": "nonpayable",
      "type": "function"
    },
    {
      "inputs": [
        {
          "internalType": "address",
          "name": "newOwner",
          "type": "address"
        }
      ],
      "name": "transferOwnership",
      "outputs": [],
      "stateMutability": "nonpayable",
      "type": "function"
    },
    {
      "inputs": [],
      "name": "whitelistRoot",
      "outputs": [
        {
          "internalType": "bytes32",
          "name": "",
          "type": "bytes32"
        }
      ],
      "stateMutability": "view",
      "type": "function"
    },
    {
      "inputs": [],
      "name": "whitelistedSale",
      "outputs": [
        {
          "internalType": "uint64",
          "name": "price",
          "type": "uint64"
        },
        {
          "internalType": "uint64",
          "name": "start",
          "type": "uint64"
        },
        {
          "internalType": "uint64",
          "name": "end",
          "type": "uint64"
        },
        {
          "internalType": "uint64",
          "name": "maxBuys",
          "type": "uint64"
        }
      ],
      "stateMutability": "view",
      "type": "function"
    }
  ],
  "bytecode": "0x60a06040523480156200001157600080fd5b506040516200213a3803806200213a8339810160408190526200003491620002ad565b8351849084906200004d90600090602085019062000155565b5080516200006390600190602084019062000155565b505050620000806200007a620000ff60201b60201c565b62000103565b815160088054602085015160408601516060909601516001600160401b03908116600160c01b026001600160c01b03978216600160801b02979097166001600160801b0392821668010000000000000000026001600160801b0319909416919095161791909117169190911792909217909155608052506200043c9050565b3390565b600780546001600160a01b038381166001600160a01b0319831681179093556040519116919082907f8be0079c531659141344cd1fd0a4f28419497f9722a3daafe3b4186f6b6457e090600090a35050565b8280546200016390620003e9565b90600052602060002090601f016020900481019282620001875760008555620001d2565b82601f10620001a257805160ff1916838001178555620001d2565b82800160010185558215620001d2579182015b82811115620001d2578251825591602001919060010190620001b5565b50620001e0929150620001e4565b5090565b5b80821115620001e05760008155600101620001e5565b600082601f8301126200020d57600080fd5b81516001600160401b0381111562000229576200022962000426565b60206200023f601f8301601f19168201620003b6565b82815285828487010111156200025457600080fd5b60005b838110156200027457858101830151828201840152820162000257565b83811115620002865760008385840101525b5095945050505050565b80516001600160401b0381168114620002a857600080fd5b919050565b60008060008084860360e0811215620002c557600080fd5b85516001600160401b0380821115620002dd57600080fd5b620002eb89838a01620001fb565b965060208801519150808211156200030257600080fd5b506200031188828901620001fb565b9450506080603f19820112156200032757600080fd5b50620003326200038b565b620003406040870162000290565b8152620003506060870162000290565b6020820152620003636080870162000290565b60408201526200037660a0870162000290565b606082015260c0959095015193969295505050565b604051608081016001600160401b0381118282101715620003b057620003b062000426565b60405290565b604051601f8201601f191681016001600160401b0381118282101715620003e157620003e162000426565b604052919050565b600181811c90821680620003fe57607f821691505b602082108114156200042057634e487b7160e01b600052602260045260246000fd5b50919050565b634e487b7160e01b600052604160045260246000fd5b608051611ce26200045860003960006102860152611ce26000f3fe608060405234801561001057600080fd5b50600436106101515760003560e01c806370a08231116100cd578063b13e964c11610081578063c87b56dd11610066578063c87b56dd1461039d578063e985e9c5146103b0578063f2fde38b146103f957600080fd5b8063b13e964c14610330578063b88d4fde1461038a57600080fd5b80638da5cb5b116100b25780638da5cb5b146102f757806395d89b4114610315578063a22cb4651461031d57600080fd5b806370a08231146102dc578063715018a6146102ef57600080fd5b806323b872dd11610124578063386bfc9811610109578063386bfc981461028157806342842e0e146102b65780636352211e146102c957600080fd5b806323b872dd146101e057806333bc1c5c146101f357600080fd5b806301ffc9a71461015657806306fdde031461017e578063081812fc14610193578063095ea7b3146101cb575b600080fd5b61016961016436600461198a565b61040c565b60405190151581526020015b60405180910390f35b6101866104f1565b6040516101759190611a9f565b6101a66101a13660046119c4565b610583565b60405173ffffffffffffffffffffffffffffffffffffffff9091168152602001610175565b6101de6101d9366004611960565b610648565b005b6101de6101ee3660046117ee565b6107a1565b60095461024d9067ffffffffffffffff808216916801000000000000000081048216917001000000000000000000000000000000008204811691780100000000000000000000000000000000000000000000000090041684565b6040805167ffffffffffffffff95861681529385166020850152918416918301919091529091166060820152608001610175565b6102a87f000000000000000000000000000000000000000000000000000000000000000081565b604051908152602001610175565b6101de6102c43660046117ee565b610828565b6101a66102d73660046119c4565b610843565b6102a86102ea3660046117a0565b6108db565b6101de61098f565b60075473ffffffffffffffffffffffffffffffffffffffff166101a6565b610186610a02565b6101de61032b366004611924565b610a11565b60085461024d9067ffffffffffffffff808216916801000000000000000081048216917001000000000000000000000000000000008204811691780100000000000000000000000000000000000000000000000090041684565b6101de61039836600461182a565b610b0e565b6101866103ab3660046119c4565b610b9c565b6101696103be3660046117bb565b73ffffffffffffffffffffffffffffffffffffffff918216600090815260056020908152604080832093909416825291909152205460ff1690565b6101de6104073660046117a0565b610d3c565b60007fffffffff0000000000000000000000000000000000000000000000000000000082167f80ac58cd00000000000000000000000000000000000000000000000000000000148061049f57507fffffffff0000000000000000000000000000000000000000000000000000000082167f5b5e139f00000000000000000000000000000000000000000000000000000000145b806104eb57507f01ffc9a7000000000000000000000000000000000000000000000000000000007fffffffff000000000000000000000000000000000000000000000000000000008316145b92915050565b60606000805461050090611b21565b80601f016020809104026020016040519081016040528092919081815260200182805461052c90611b21565b80156105795780601f1061054e57610100808354040283529160200191610579565b820191906000526020600020905b81548152906001019060200180831161055c57829003601f168201915b5050505050905090565b60008181526002602052604081205473ffffffffffffffffffffffffffffffffffffffff1661061f5760405162461bcd60e51b815260206004820152602c60248201527f4552433732313a20617070726f76656420717565727920666f72206e6f6e657860448201527f697374656e7420746f6b656e000000000000000000000000000000000000000060648201526084015b60405180910390fd5b5060009081526004602052604090205473ffffffffffffffffffffffffffffffffffffffff1690565b600061065382610843565b90508073ffffffffffffffffffffffffffffffffffffffff168373ffffffffffffffffffffffffffffffffffffffff1614156106f75760405162461bcd60e51b815260206004820152602160248201527f4552433732313a20617070726f76616c20746f2063757272656e74206f776e6560448201527f72000000000000000000000000000000000000000000000000000000000000006064820152608401610616565b3373ffffffffffffffffffffffffffffffffffffffff82161480610720575061072081336103be565b6107925760405162461bcd60e51b815260206004820152603860248201527f4552433732313a20617070726f76652063616c6c6572206973206e6f74206f7760448201527f6e6572206e6f7220617070726f76656420666f7220616c6c00000000000000006064820152608401610616565b61079c8383610e38565b505050565b6107ab3382610ed8565b61081d5760405162461bcd60e51b815260206004820152603160248201527f4552433732313a207472616e736665722063616c6c6572206973206e6f74206f60448201527f776e6572206e6f7220617070726f7665640000000000000000000000000000006064820152608401610616565b61079c83838361102a565b61079c83838360405180602001604052806000815250610b0e565b60008181526002602052604081205473ffffffffffffffffffffffffffffffffffffffff16806104eb5760405162461bcd60e51b815260206004820152602960248201527f4552433732313a206f776e657220717565727920666f72206e6f6e657869737460448201527f656e7420746f6b656e00000000000000000000000000000000000000000000006064820152608401610616565b600073ffffffffffffffffffffffffffffffffffffffff82166109665760405162461bcd60e51b815260206004820152602a60248201527f4552433732313a2062616c616e636520717565727920666f7220746865207a6560448201527f726f2061646472657373000000000000000000000000000000000000000000006064820152608401610616565b5073ffffffffffffffffffffffffffffffffffffffff1660009081526003602052604090205490565b60075473ffffffffffffffffffffffffffffffffffffffff1633146109f65760405162461bcd60e51b815260206004820181905260248201527f4f776e61626c653a2063616c6c6572206973206e6f7420746865206f776e65726044820152606401610616565b610a00600061125d565b565b60606001805461050090611b21565b73ffffffffffffffffffffffffffffffffffffffff8216331415610a775760405162461bcd60e51b815260206004820152601960248201527f4552433732313a20617070726f766520746f2063616c6c6572000000000000006044820152606401610616565b33600081815260056020908152604080832073ffffffffffffffffffffffffffffffffffffffff87168085529083529281902080547fffffffffffffffffffffffffffffffffffffffffffffffffffffffffffffff001686151590811790915590519081529192917f17307eab39ab6107e8899845ad3d59bd9653f200f220920489ca2b5937696c31910160405180910390a35050565b610b183383610ed8565b610b8a5760405162461bcd60e51b815260206004820152603160248201527f4552433732313a207472616e736665722063616c6c6572206973206e6f74206f60448201527f776e6572206e6f7220617070726f7665640000000000000000000000000000006064820152608401610616565b610b96848484846112d4565b50505050565b60008181526002602052604090205460609073ffffffffffffffffffffffffffffffffffffffff16610c365760405162461bcd60e51b815260206004820152603160248201527f45524337323155524953746f726167653a2055524920717565727920666f722060448201527f6e6f6e6578697374656e7420746f6b656e0000000000000000000000000000006064820152608401610616565b60008281526006602052604081208054610c4f90611b21565b80601f0160208091040260200160405190810160405280929190818152602001828054610c7b90611b21565b8015610cc85780601f10610c9d57610100808354040283529160200191610cc8565b820191906000526020600020905b815481529060010190602001808311610cab57829003601f168201915b505050505090506000610ce660408051602081019091526000815290565b9050805160001415610cf9575092915050565b815115610d2b578082604051602001610d13929190611a27565b60405160208183030381529060405292505050919050565b610d348461135d565b949350505050565b60075473ffffffffffffffffffffffffffffffffffffffff163314610da35760405162461bcd60e51b815260206004820181905260248201527f4f776e61626c653a2063616c6c6572206973206e6f7420746865206f776e65726044820152606401610616565b73ffffffffffffffffffffffffffffffffffffffff8116610e2c5760405162461bcd60e51b815260206004820152602660248201527f4f776e61626c653a206e6577206f776e657220697320746865207a65726f206160448201527f64647265737300000000000000000000000000000000000000000000000000006064820152608401610616565b610e358161125d565b50565b600081815260046020526040902080547fffffffffffffffffffffffff00000000000000000000000000000000000000001673ffffffffffffffffffffffffffffffffffffffff84169081179091558190610e9282610843565b73ffffffffffffffffffffffffffffffffffffffff167f8c5be1e5ebec7d5bd14f71427d1e84f3dd0314c0f7b2291e5b200ac8c7c3b92560405160405180910390a45050565b60008181526002602052604081205473ffffffffffffffffffffffffffffffffffffffff16610f6f5760405162461bcd60e51b815260206004820152602c60248201527f4552433732313a206f70657261746f7220717565727920666f72206e6f6e657860448201527f697374656e7420746f6b656e00000000000000000000000000000000000000006064820152608401610616565b6000610f7a83610843565b90508073ffffffffffffffffffffffffffffffffffffffff168473ffffffffffffffffffffffffffffffffffffffff161480610fe957508373ffffffffffffffffffffffffffffffffffffffff16610fd184610583565b73ffffffffffffffffffffffffffffffffffffffff16145b80610d34575073ffffffffffffffffffffffffffffffffffffffff80821660009081526005602090815260408083209388168352929052205460ff16610d34565b8273ffffffffffffffffffffffffffffffffffffffff1661104a82610843565b73ffffffffffffffffffffffffffffffffffffffff16146110d35760405162461bcd60e51b815260206004820152602960248201527f4552433732313a207472616e73666572206f6620746f6b656e2074686174206960448201527f73206e6f74206f776e00000000000000000000000000000000000000000000006064820152608401610616565b73ffffffffffffffffffffffffffffffffffffffff821661115b5760405162461bcd60e51b8152602060048201526024808201527f4552433732313a207472616e7366657220746f20746865207a65726f2061646460448201527f72657373000000000000000000000000000000000000000000000000000000006064820152608401610616565b611166600082610e38565b73ffffffffffffffffffffffffffffffffffffffff8316600090815260036020526040812080546001929061119c908490611ade565b909155505073ffffffffffffffffffffffffffffffffffffffff821660009081526003602052604081208054600192906111d7908490611ab2565b909155505060008181526002602052604080822080547fffffffffffffffffffffffff00000000000000000000000000000000000000001673ffffffffffffffffffffffffffffffffffffffff86811691821790925591518493918716917fddf252ad1be2c89b69c2b068fc378daa952ba7f163c4a11628f55a4df523b3ef91a4505050565b6007805473ffffffffffffffffffffffffffffffffffffffff8381167fffffffffffffffffffffffff0000000000000000000000000000000000000000831681179093556040519116919082907f8be0079c531659141344cd1fd0a4f28419497f9722a3daafe3b4186f6b6457e090600090a35050565b6112df84848461102a565b6112eb84848484611460565b610b965760405162461bcd60e51b815260206004820152603260248201527f4552433732313a207472616e7366657220746f206e6f6e20455243373231526560448201527f63656976657220696d706c656d656e74657200000000000000000000000000006064820152608401610616565b60008181526002602052604090205460609073ffffffffffffffffffffffffffffffffffffffff166113f75760405162461bcd60e51b815260206004820152602f60248201527f4552433732314d657461646174613a2055524920717565727920666f72206e6f60448201527f6e6578697374656e7420746f6b656e00000000000000000000000000000000006064820152608401610616565b600061140e60408051602081019091526000815290565b9050600081511161142e5760405180602001604052806000815250611459565b8061143884611645565b604051602001611449929190611a27565b6040516020818303038152906040525b9392505050565b600073ffffffffffffffffffffffffffffffffffffffff84163b1561163a576040517f150b7a0200000000000000000000000000000000000000000000000000000000815273ffffffffffffffffffffffffffffffffffffffff85169063150b7a02906114d7903390899088908890600401611a56565b602060405180830381600087803b1580156114f157600080fd5b505af192505050801561153f575060408051601f3d9081017fffffffffffffffffffffffffffffffffffffffffffffffffffffffffffffffe016820190925261153c918101906119a7565b60015b6115ef573d80801561156d576040519150601f19603f3d011682016040523d82523d6000602084013e611572565b606091505b5080516115e75760405162461bcd60e51b815260206004820152603260248201527f4552433732313a207472616e7366657220746f206e6f6e20455243373231526560448201527f63656976657220696d706c656d656e74657200000000000000000000000000006064820152608401610616565b805181602001fd5b7fffffffff00000000000000000000000000000000000000000000000000000000167f150b7a0200000000000000000000000000000000000000000000000000000000149050610d34565b506001949350505050565b60608161168557505060408051808201909152600181527f3000000000000000000000000000000000000000000000000000000000000000602082015290565b8160005b81156116af578061169981611b75565b91506116a89050600a83611aca565b9150611689565b60008167ffffffffffffffff8111156116ca576116ca611c4f565b6040519080825280601f01601f1916602001820160405280156116f4576020820181803683370190505b5090505b8415610d3457611709600183611ade565b9150611716600a86611bae565b611721906030611ab2565b60f81b81838151811061173657611736611c20565b60200101907effffffffffffffffffffffffffffffffffffffffffffffffffffffffffffff1916908160001a905350611770600a86611aca565b94506116f8565b803573ffffffffffffffffffffffffffffffffffffffff8116811461179b57600080fd5b919050565b6000602082840312156117b257600080fd5b61145982611777565b600080604083850312156117ce57600080fd5b6117d783611777565b91506117e560208401611777565b90509250929050565b60008060006060848603121561180357600080fd5b61180c84611777565b925061181a60208501611777565b9150604084013590509250925092565b6000806000806080858703121561184057600080fd5b61184985611777565b935061185760208601611777565b925060408501359150606085013567ffffffffffffffff8082111561187b57600080fd5b818701915087601f83011261188f57600080fd5b8135818111156118a1576118a1611c4f565b604051601f82017fffffffffffffffffffffffffffffffffffffffffffffffffffffffffffffffe0908116603f011681019083821181831017156118e7576118e7611c4f565b816040528281528a602084870101111561190057600080fd5b82602086016020830137600060208483010152809550505050505092959194509250565b6000806040838503121561193757600080fd5b61194083611777565b91506020830135801515811461195557600080fd5b809150509250929050565b6000806040838503121561197357600080fd5b61197c83611777565b946020939093013593505050565b60006020828403121561199c57600080fd5b813561145981611c7e565b6000602082840312156119b957600080fd5b815161145981611c7e565b6000602082840312156119d657600080fd5b5035919050565b600081518084526119f5816020860160208601611af5565b601f017fffffffffffffffffffffffffffffffffffffffffffffffffffffffffffffffe0169290920160200192915050565b60008351611a39818460208801611af5565b835190830190611a4d818360208801611af5565b01949350505050565b600073ffffffffffffffffffffffffffffffffffffffff808716835280861660208401525083604083015260806060830152611a9560808301846119dd565b9695505050505050565b60208152600061145960208301846119dd565b60008219821115611ac557611ac5611bc2565b500190565b600082611ad957611ad9611bf1565b500490565b600082821015611af057611af0611bc2565b500390565b60005b83811015611b10578181015183820152602001611af8565b83811115610b965750506000910152565b600181811c90821680611b3557607f821691505b60208210811415611b6f577f4e487b7100000000000000000000000000000000000000000000000000000000600052602260045260246000fd5b50919050565b60007fffffffffffffffffffffffffffffffffffffffffffffffffffffffffffffffff821415611ba757611ba7611bc2565b5060010190565b600082611bbd57611bbd611bf1565b500690565b7f4e487b7100000000000000000000000000000000000000000000000000000000600052601160045260246000fd5b7f4e487b7100000000000000000000000000000000000000000000000000000000600052601260045260246000fd5b7f4e487b7100000000000000000000000000000000000000000000000000000000600052603260045260246000fd5b7f4e487b7100000000000000000000000000000000000000000000000000000000600052604160045260246000fd5b7fffffffff0000000000000000000000000000000000000000000000000000000081168114610e3557600080fdfea2646970667358221220d6a29091c685fe44df84dc55715e09639e5985f039fa1a681c6dad4456c1865764736f6c63430008070033",
  "immutableReferences": {
    "24": [
      {
        "length": 32,
        "start": 646
      }
    ]
  },
  "source": "// SPDX-License-Identifier: GPL-3.0-only\npragma solidity ^0.8.7;\n\nimport \"@openzeppelin/contracts/token/ERC721/extensions/ERC721URIStorage.sol\";\nimport \"@openzeppelin/contracts/access/Ownable.sol\";\n\ncontract TrippyNFTs is ERC721URIStorage, Ownable {\n    struct Sale {\n        uint64 price;\n        uint64 start;\n        uint64 end;\n        uint64 maxBuys;\n    }\n\n    Sale public whitelistedSale;\n    Sale public publicSale;\n    bytes32 public immutable whitelistRoot;\n\n    constructor(\n        string memory name_,\n        string memory symbol_,\n        Sale memory _whitelistedSale,\n        bytes32 _whitelistRoot\n    )\n        ERC721(name_, symbol_)\n        Ownable()\n    {\n        whitelistedSale = _whitelistedSale;\n        whitelistRoot = _whitelistRoot;\n    }\n}\n",
  "sourcePath": "/home/philippe/Documents/Programming/Ethereum/trippy-nfts/contracts/TrippyNFTs.sol",
  "compiler": {
    "name": "solc",
    "version": "0.8.7+commit.e28d00a7.Emscripten.clang"
  },
  "schemaVersion": "3.3.4",
  "updatedAt": "2021-08-22T21:15:07.207Z",
  "devdoc": {
    "kind": "dev",
    "methods": {
      "approve(address,uint256)": {
        "details": "See {IERC721-approve}."
      },
      "balanceOf(address)": {
        "details": "See {IERC721-balanceOf}."
      },
      "getApproved(uint256)": {
        "details": "See {IERC721-getApproved}."
      },
      "isApprovedForAll(address,address)": {
        "details": "See {IERC721-isApprovedForAll}."
      },
      "name()": {
        "details": "See {IERC721Metadata-name}."
      },
      "owner()": {
        "details": "Returns the address of the current owner."
      },
      "ownerOf(uint256)": {
        "details": "See {IERC721-ownerOf}."
      },
      "renounceOwnership()": {
        "details": "Leaves the contract without owner. It will not be possible to call `onlyOwner` functions anymore. Can only be called by the current owner. NOTE: Renouncing ownership will leave the contract without an owner, thereby removing any functionality that is only available to the owner."
      },
      "safeTransferFrom(address,address,uint256)": {
        "details": "See {IERC721-safeTransferFrom}."
      },
      "safeTransferFrom(address,address,uint256,bytes)": {
        "details": "See {IERC721-safeTransferFrom}."
      },
      "setApprovalForAll(address,bool)": {
        "details": "See {IERC721-setApprovalForAll}."
      },
      "supportsInterface(bytes4)": {
        "details": "See {IERC165-supportsInterface}."
      },
      "symbol()": {
        "details": "See {IERC721Metadata-symbol}."
      },
      "tokenURI(uint256)": {
        "details": "See {IERC721Metadata-tokenURI}."
      },
      "transferFrom(address,address,uint256)": {
        "details": "See {IERC721-transferFrom}."
      },
      "transferOwnership(address)": {
        "details": "Transfers ownership of the contract to a new account (`newOwner`). Can only be called by the current owner."
      }
    },
    "version": 1
  },
  "userdoc": {
    "kind": "user",
    "methods": {},
    "version": 1
  }
}